:1000000061C0000086C0000084C0000082C0000003
:1000100080C000007EC000007CC000007AC00000EC
:1000200078C0000076C0000074C0000072C00000FC
:1000300070C00000C3C500006CC000006AC00000B2
:100040000C944D0966C000000C94B60B0C94E80BA0
:1000500060C000005EC000005CC000005AC000002C
:1000600058C0000056C00000000000080002010057
:100070000003040700000000000000000102040863
:100080001020408001020408102001020408102002
:10009000040404040404040402020202020203032E
:1000A00003030303000000002300260029000000D2
:1000B0000000250028002B0000000000240027007D
:1000C0002A000D0C11241FBECFEFD8E0DEBFCDBF3C
:1000D00011E0A0E0B1E0E2E2F9E102C005900D928A
:1000E000A431B107D9F722E0A4E1B1E001C01D922B
:1000F000A035B207E1F710E0C2E6D0E004C02197D6
:10010000FE010E94890CC136D107C9F7F3D50C94C2
:100110008F0C76CF611102C00C94FB096130E1F3C2
:1001200062E0FACF662319F061E00C94370A60E0D0
:10013000FCCF0E94640A21E0019709F020E0822FA1
:100140000895FC0191E08091C701811190E09183B5
:1001500008954F925F926F927F928F929F92AF928B
:10016000BF92CF92DF92EF92FF92CF93DF9300D0B6
:1001700000D0CDB7DEB74B015C0169017A01DC012B
:10018000CB0188279927A078BF770097A048BF4761
:1001900079F421E030E0D501CB01AF77BB27892B83
:1001A0008A2B8B2B11F430E020E0232B09F057C071
:1001B000D701C60188279927A078BF770097A04864
:1001C000BF4779F421E030E0D701C601AF77BB2704
:1001D000892B8A2B8B2B11F430E020E0232B09F0A4
:1001E0003EC04090CD015090CE016090CF01709004
:1001F000D001A3019201C501B40129D6882379F168
:100200008091460290914702A0914802B091490224
:1002100089839A83AB83BC839C01AD01C501B40182
:1002200016D68823E1F0A3019201C701B6010FD6CB
:1002300081111EC0C501B4010F900F900F900F9057
:10024000DF91CF91FF90EF90DF90CF90BF90AF9074
:100250009F908F907F906F905F904F9008958090C7
:10026000420290904302A0904402B0904502E2CF37
:1002700029813A814B815C81C701B601E8D5882389
:10028000C9F220E030E0A901C701B601E0D587FF3F
:1002900043C0C701B601C8D52B013C01A30192019F
:1002A000C701B601D4D5882309F443C0A70196013C
:1002B000C501B401D0D52B013C01E89477F820E0CA
:1002C00030E040E05FE3C301B2014AD569D69B014B
:1002D000AC01C301B20143D59B01AC015F77298317
:1002E0003A834B835C8320E030E040E054E3C30179
:1002F000B20170D79B01AC0169817A818B819C81AD
:1003000065D71816B4F020E030E0A901C501B401AA
:1003100061D74B015C018ECFC701B60141D62B01DD
:100320003C0120E030E0A901C701B60190D5811160
:10033000B5CFA7019601C501B4010F900F900F90A2
:100340000F90DF91CF91FF90EF90DF90CF90BF9013
:10035000AF909F908F907F906F905F904F903AC634
:100360008F929F92AF92BF92CF92DF92EF92FF92C5
:10037000CF93DF934B015C01EA01C880D980EA800A
:10038000FB8020E030E0A90121D718166CF120E0B5
:1003900030E0A901C501B4015AD5881F8827881FFC
:1003A00091E0892790E025E0C216D104E104F10430
:1003B00009F460C0AC01092E000C660B770BC41663
:1003C000D506E606F70699F440E050E0BA01CB0105
:1003D000BA01DF91CF91FF90EF90DF90CF90BF9067
:1003E000AF909F908F90089582E090E0DCCF23E063
:1003F000C216D104E104F10451F4E2E0F0E08130EE
:10040000910581F4F0E0E0E021E030E010C024E06C
:10041000C216D104E104F104D1F4E3E0F0E081304C
:10042000910581F325E030E082309105F1F040E064
:1004300050E0BA01E417F507C1F18130910519F4D4
:1004400042305105B1F125303105B9F425C0F0E055
:10045000E0E021E0C216D104E104F10419F325E043
:1004600030E0CD28CE28CF2811F742E050E060E000
:1004700070E0E0CF9C0185E090E0A901330F660BAE
:10048000770B488359836A837B838530910509F410
:100490009BCF40E050E0BA01092E000CAA0BBB0B29
:1004A00088839983AA83BB8392CF40E050E0BA014E
:1004B000CACF83E090E042E050E060E070E0C3CF5C
:1004C0000F931F93CF93DF93EB01488159816A818A
:1004D0007B818823E1F082E090E0453051056105A1
:1004E000710509F45AC08C01092E000C220B330B44
:1004F000401751076207730769F440E050E0BA0102
:10050000CB01BA01DF91CF911F910F91089581E046
:1005100090E0E3CF433051056105710551F4E2E00D
:10052000F0E08130910579F4F0E0E0E021E030E0A6
:100530001DC0443051056105710561F4E3E0F0E050
:100540008130910589F325E030E042E050E060E041
:1005500070E00FC0F0E0E0E0413051056105710549
:10056000A9F425E030E08230910569F340E050E0E5
:10057000BA01E417F507B1F18130910549F5423030
:10058000510549F12530310559F419C025E030E015
:10059000452B462B472BC9F2E9CF9C0185E090E023
:1005A000A901330F660B770B488359836A837B83DA
:1005B0008530910509F4A1CF40E050E0BA01092E41
:1005C000000CAA0BBB0B88839983AA83BB8398CFAB
:1005D00082E090E0D7CF83E090E042E050E060E03E
:1005E00070E0D0CF8130910511F082E090E040E0E2
:1005F00050E0BA01C7CF8091C70191E0811190E02E
:100600009093C80191E0980F9A3008F055C09093EC
:10061000C701811104C080913E0280933C02809109
:100620001D0290911E02A0911F02B0912002893FED
:100630009105A105B1050CF442C010921D02109263
:100640001E0210921F021092200220913C022223CF
:1006500031F061E08D379105A105B10508F060E04A
:1006600089E060DD8091C801882321F080914002FB
:1006700080933D028091210290912202A091230259
:10068000B0912402893F9105A105B1053CF110927A
:100690002102109222021092230210922402209131
:1006A0003D02222331F061E08D379105A105B105AE
:1006B00008F060E08AE036CD1092C701AACFAC0105
:1006C000BD014F5F5F4F6F4F7F4F40931D025093AF
:1006D0001E0260931F0270932002B7CFAC01BD01D0
:1006E0004F5F5F4F6F4F7F4F409321025093220225
:1006F0006093230270932402D2CF8F929F92AF9285
:10070000BF92CF92DF92EF92FF921F93CF93DF932E
:100710002AE037ED43E25CE36091D9017091DA01A0
:100720008091DB019091DC0192D3882361F08AE013
:1007300097EDA3E2BCE38093D9019093DA01A093F3
:10074000DB01B093DC0182E0F4DCD82F2AE037ED46
:1007500043E25CE36091E5017091E6018091E7017D
:100760009091E80174D3882361F08AE097EDA3E2C9
:10077000BCE38093E5019093E601A093E701B09379
:10078000E80183E0D6DC182F2AE037ED43E25CE392
:100790006091F1017091F2018091F3019091F40167
:1007A00056D3882361F08AE097EDA3E2BCE38093FF
:1007B000F1019093F201A093F301B093F40184E06E
:1007C000B8DCC82F60910502709106028091070283
:1007D000909108026093150270931602809317029D
:1007E0009093180249E252E0BBDD672B682B692B1E
:1007F00019F081E08093390265E272E08D2F60DEAE
:10080000672B682B692B41F0809139028F3F09F4E7
:10081000E6C08F5F809339026091390270E090E00A
:1008200080E081D320E030E040E050E492DC20E042
:1008300030E0A9010CD3812C912C5401811106C008
:10084000812C912C90E8A92E9FE3B92E6DE272E0E5
:100850008C2F36DE672B682B692B41F080913A0292
:100860008F3F09F4BFC08F5F80933A0260913A02D4
:1008700070E090E080E057D320E030E040E050E4CA
:1008800068DC20E030E0A901E2D2C12CD12C760155
:10089000811106C0C12CD12C80E8E82E8FE3F82E00
:1008A000D1E020E030E0A901C701B601D0D281112A
:1008B000D0E020E030E0A901C501B401C8D2C1E018
:1008C000811109C020E030E0A901C701B601BFD203
:1008D000811101C0C0E0C0933E0260910D02709191
:1008E0000E0280910F029091100260931902709392
:1008F0001A0280931B0290931C0245E352E030DD04
:10090000672B682B692B19F081E080933B0261E330
:1009100072E0812FD5DD672B682B692B41F0809128
:100920003B028F3F09F461C08F5F80933B0260916F
:100930003B0270E090E080E0F6D220E030E040E062
:1009400050E407DC20E030E0A90181D2811150C0E1
:1009500080E090E0A0E8BFE3C1E0C0934002D09304
:100960003F02D09341024091090250910A026091E6
:100970000B0270910C0240930502509306026093A3
:100980000702709308028093090290930A02A093D1
:100990000B02B0930C028091110290911202A0916F
:1009A0001302B091140280930D0290930E02A09353
:1009B0000F02B09310028092110290921202A09244
:1009C0001302B0921402DF91CF911F91FF90EF902C
:1009D000DF90CF90BF90AF909F908F90089510922E
:1009E00039021ACF10923A0241CF10923B029FCFA8
:1009F000C1E020E030E0A901C701B60128D2811191
:100A000001C0C0E080E090E0DC01A7CF8F929F9210
:100A1000AF92BF92CF92DF92EF92FF921F93CF934C
:100A2000DF9380E090E0A0ECBFEF809342029093D0
:100A30004302A0934402B09345028093C001909377
:100A4000C101A093C201B093C30180E090E0A0E88F
:100A5000BFE78093CD019093CE01A093CF01B093D7
:100A6000D0018093C9019093CA01A093CB01B093A8
:100A7000CC0180E090E0A0E8BFEF80934602909325
:100A80004702A0934802B093490280934A02909390
:100A90004B02A0934C02B0934D02C1EDD1E085E032
:100AA00090E0A0E0B0E08093250290932602A0930E
:100AB0002702B09328028093290290932A02A093E0
:100AC0002B02B0932C0211E01093390280932D0277
:100AD00090932E02A0932F02B093300210933A020B
:100AE0008093310290933202A0933302B093340288
:100AF0008093350290933602A0933702B093380268
:100B000010933B021CA2C12CD12C7601C394CDA220
:100B1000DEA2EFA2F8A661E089E0FCDA19A71CA624
:100B2000CDA6DEA6EFA6F8AA61E08AE0F3DA19AB5B
:100B300018829AE0892E97ED992E93E2A92E9CE3D4
:100B4000B92E88869986AA86BB86C982DA82EB820C
:100B5000FC8260E082E0DEDA1D831C868C8A9D8A3E
:100B6000AE8ABF8ACD86DE86EF86F88A60E083E0B3
:100B7000D1DA198B188E88A299A2AAA2BBA2C98E1B
:100B8000DA8EEB8EFC8E60E084E0C4DA1D8FDF919C
:100B9000CF911F91FF90EF90DF90CF90BF90AF90DB
:100BA0009F908F90089540E855E260E070E090E0FB
:100BB00080E000C026E083E291E078C51F920F92AA
:100BC0000FB60F9211242F933F934F935F936F9320
:100BD0007F938F939F93AF93BF93EF93FF9386E0A1
:100BE0009FEF909385008093840032D0FF91EF9126
:100BF000BF91AF919F918F917F916F915F914F9135
:100C00003F912F910F900FBE0F901F90189586E087
:100C10009FEF9093850080938400AFE6B0E08C91C5
:100C20008E7F8C93E0E8F0E080818C7F8083E1E828
:100C3000F0E08081877E80838081836080838081F3
:100C40008B7F80838C9181608C93089581E00895DF
:100C5000CF93DF9300D0CDB7DEB78091160191E03E
:100C6000980F90931601882369F021E030E03093CB
:100C7000190120931801809316010F900F90DF91B6
:100C8000CF910895CE0101965CDA7894B4DCF894A3
:100C9000809116018150809316018A81882389F002
:100CA0008091150191E0980F90931501882349F0E8
:100CB00021E030E030931901209318018093150151
:100CC000DCCF809115018823C1F280911701811139
:100CD000D4CF81E08093170178940FDDF894809150
:100CE00015018150809315018091170181508093E7
:100CF0001701C3CFCF93DF9310924F0210924E0291
:100D000016D351DFC0910001D091010119821882E0
:100D10007DDE7DDF81E028813981232B09F080E0B1
:100D200080934E027894789480914E02811106C08F
:100D3000F89490E080E0DF91CF91089581E02881E0
:100D40003981232B09F480E080934F0290914F0268
:100D500081E0911180E080934E0278DFE5CF50581A
:100D6000BB27AA270ED0E1C1D2D130F0D7D120F0D5
:100D700031F49F3F11F41EF4C7C10EF4E095E7FB78
:100D800094C1E92FE3D180F3BA1762077307840790
:100D9000950718F071F49EF512C20EF4E0950B2E33
:100DA000BA2FA02D0B01B90190010C01CA01A001BD
:100DB0001124FF27591B99F0593F50F4503E68F118
:100DC0001A16F040A22F232F342F4427585FF3CF59
:100DD000469537952795A795F0405395C9F77EF42A
:100DE0001F16BA0B620B730B840BBAF09150A1F073
:100DF000FF0FBB1F661F771F881FC2F70EC0BA0FF9
:100E0000621F731F841F48F4879577956795B79580
:100E1000F7959E3F08F0B3CF9395880F08F0992778
:100E2000EE0F979587950895B3D180F09F3740F4E2
:100E300091110EF4C5C160E070E080E89FE3089571
:100E400026F01B16611D711D811D35C14FC109D1D1
:100E500008F481E008950CD068C160D140F057D10A
:100E600030F021F45F3F19F020C15111A9C14CC1EC
:100E70006DD198F39923C9F35523B1F3951B550B05
:100E8000BB27AA2762177307840738F09F5F5F4F5D
:100E9000220F331F441FAA1FA9F333D00E2E3AF09E
:100EA000E0E830D091505040E695001CCAF729D0B8
:100EB000FE2F27D0660F771F881FBB1F2617370707
:100EC0004807AB07B0E809F0BB0B802DBF01FF2737
:100ED00093585F4F2AF09E3F510568F0E6C070C1FD
:100EE0005F3FECF3983EDCF3869577956795B79571
:100EF000F7959F5FC9F7880F911D9695879597F98C
:100F00000895E1E0660F771F881FBB1F6217730704
:100F10008407BA0720F0621B730B840BBA0BEE1F19
:100F200088F7E0950895E89409C097FB3EF4909502
:100F30008095709561957F4F8F4F9F4F9923A9F0B2
:100F4000F92F96E9BB279395F69587957795679541
:100F5000B795F111F8CFFAF4BB0F11F460FF1BC085
:100F60006F5F7F4F8F4F9F4F16C0882311F096E918
:100F700011C0772321F09EE8872F762F05C06623C6
:100F800071F096E8862F70E060E02AF09A95660F7F
:100F9000771F881FDAF7880F9695879597F9089538
:100FA000F7D080F09F3740F491110EF009C160E056
:100FB00070E080E89FEB089526F41B16611D711DFB
:100FC000811D79C093C0A3D018F011F0A7D038F4D8
:100FD0009BC0F6C0E92FBAD0B0F35523C9F3E7FBA5
:100FE0006217730784079507A8F199F3E92FFF2784
:100FF00088232AF03197660F771F881FDAF7952F1D
:101000005527442332F091505040220F331F441F84
:10101000D2F7BB27E91BF50B621B730B840BB109DD
:10102000C1F222F4620F731F841FB11D31972AF0A1
:10103000660F771F881FBB1FEFCF915050405AF0AB
:1010400041F0882332F0660F771F881F915050407F
:10105000C1F793954BC08695779567959F5FD9F7B4
:10106000F8CF990F0008550FAA0BE0E8FEEF16160F
:101070001706E807F907C0F012161306E407F5078C
:1010800098F0621B730B840B950B39F40A2661F000
:10109000232B242B252B21F408950A2609F4A140A3
:1010A000A6958FEF811D811D089597F99F6780E8B0
:1010B00070E060E00895882371F4772321F0985060
:1010C000872B762F07C0662311F499270DC0905106
:1010D000862B70E060E02AF09A95660F771F881FD4
:1010E000DAF7880F9695879597F908959F3F31F025
:1010F000915020F4879577956795B795880F911D46
:101100009695879597F908959FEF80EC08950024B0
:101110000A941616170618060906089500240A945C
:1011200012161306140605060895092E0394000CE2
:1011300011F4882352F0BB0F40F4BF2B11F460FF71
:1011400004C06F5F7F4F8F4F9F4F089557FD90589A
:10115000440F551F59F05F3F71F04795880F97FB7B
:10116000991F61F09F3F79F0879508951216130635
:101170001406551FF2CF4695F1DF08C01616170664
:101180001806991FF1CF8695710561050894089599
:10119000E5DFA0F0BEE7B91788F4BB279F3860F4FD
:1011A0001616B11D672F782F8827985FF7CF869581
:1011B00077956795B11D93959639C8F30895E8948E
:1011C000BB2766277727CB0197F908954ADF08F4F4
:1011D0008FEF08950BD0A9CF9ADF28F09FDF18F08A
:1011E000952309F062CF90CF1124EACFAFDFA0F3AF
:1011F000959FD1F3950F50E0551F629FF001729FAC
:10120000BB27F00DB11D639FAA27F00DB11DAA1FCA
:10121000649F6627B00DA11D661F829F2227B00D17
:10122000A11D621F739FB00DA11D621F839FA00DA2
:10123000611D221F749F3327A00D611D231F849FF2
:10124000600D211D822F762F6A2F11249F57504049
:101250008AF0E1F088234AF0EE0FFF1FBB1F661FE4
:10126000771F881F91505040A9F79E3F510570F09D
:101270001CCFA6CF5F3FECF3983EDCF386957795C5
:101280006795B795F795E7959F5FC1F7FE2B880F98
:10129000911D9695879597F908951F920F920FB615
:1012A0000F9211242F933F938F939F93AF93BF93EC
:1012B00080911B0190911C01A0911D01B0911E0114
:1012C00030911A0123E0230F2D3758F50196A11D07
:1012D000B11D20931A0180931B0190931C01A093D0
:1012E0001D01B0931E0180911F0190912001A091DA
:1012F0002101B09122010196A11DB11D80931F0112
:1013000090932001A0932101B0932201BF91AF914E
:101310009F918F913F912F910F900FBE0F901F9033
:10132000189526E8230F0296A11DB11DD2CF7894FF
:1013300084B5826084BD84B5816084BD85B58260DA
:1013400085BD85B5816085BDEEE6F0E08081816078
:101350008083E1E8F0E01082808182608083808178
:1013600081608083E0E8F0E0808181608083E1EB50
:10137000F0E0808184608083E0EBF0E08081816038
:101380008083EAE7F0E080818460808380818260EE
:1013900080838081816080838081806880831092D7
:1013A000C1000895833081F028F4813099F08230B3
:1013B000A9F008958730A9F08830C9F08430B1F4DD
:1013C000809180008F7D03C0809180008F77809313
:1013D0008000089584B58F7784BD089584B58F7D8E
:1013E000FBCF8091B0008F778093B00008958091FB
:1013F000B0008F7DF9CFCF93DF9390E0FC01E458EC
:10140000FF4F249180579F4FFC0184918823C9F09E
:1014100090E0880F991FFC01E854FF4FA591B4910B
:10142000FC01E255FF4FC591D49161110DC09FB7EA
:10143000F8948C91209582238C938881282328838B
:101440009FBFDF91CF910895623051F49FB7F89418
:101450003C91822F809583238C93E8812E2BEFCFB4
:101460008FB7F894EC912E2B2C938FBFEACF1F935C
:10147000CF93DF93282F30E0F901E859FF4F849193
:10148000F901E458FF4FD491F901E057FF4FC4919F
:10149000CC23A1F0162F811185DFEC2FF0E0EE0FA9
:1014A000FF1FE255FF4FA591B4918FB7F894EC91CF
:1014B000111108C0D095DE23DC938FBFDF91CF914F
:1014C0001F910895DE2BF8CFCF93DF93282F30E0C4
:1014D000F901E859FF4F8491F901E458FF4FD49185
:1014E000F901E057FF4FC491CC2399F081115ADFE5
:1014F000EC2FF0E0EE0FFF1FEC55FF4FA591B491DC
:10150000EC91ED2381E090E009F480E0DF91CF9150
:10151000089580E090E0FACFFC01918D228D892F13
:1015200090E0805C9F4F821B91098F7399270895EB
:10153000FC01918D828D981731F0828DE80FF11D9D
:10154000858D90E008958FEF9FEF0895FC01918DB8
:10155000828D981761F0A28DAE0FBF2FB11D5D96E1
:101560008C91928D9F5F9F73928F90E008958FEF83
:101570009FEF0895FC01538D448D252F30E0842F7B
:1015800090E0821B930B541710F0CF9608950197AB
:101590000895FC01A48DA80FB92FB11DA35ABF4F08
:1015A0002C91848D90E001968F739927848FA68962
:1015B000B7892C93A089B1898C91837080648C93B6
:1015C000938D848D981306C00288F389E02D808165
:1015D0008F7D80830895CF93DF93EC01888D8823DE
:1015E000B1F0AA89BB89E889F9898C9185FD03C08E
:1015F000808186FD0CC00FB607FCF7CF8C9185FF6C
:10160000F2CF808185FFEDCFCE01C3DFEACFDF913E
:10161000CF910895EF92FF920F931F93CF93DF9393
:10162000EC0181E0888F9B8D8C8D98131AC0E8891E
:10163000F989808185FF15C09FB7F894EE89FF89ED
:101640006083E889F98980818370806480839FBF8B
:1016500081E090E0DF91CF911F910F91FF90EF908B
:101660000895F62E0B8D10E00F5F1F4F0F7311279B
:10167000E02E8C8D8E110BC00FB607FCFACFE889D7
:10168000F989808185FFF5CFCE0183DFF2CFEB8D25
:10169000EC0FFD2FF11DE35AFF4FF0829FB7F89436
:1016A0000B8FEA89FB8980818062D0CFCF92DF9255
:1016B000EF92FF921F93CF93DF93EC016A017B01BE
:1016C000122FE889F98982E08083C11481EED8065F
:1016D000E104F10499F060E079E08DE390E0A70186
:1016E0009601F5D021503109410951095695479588
:1016F00037952795211580E1380790F0E889F98919
:10170000108260E874E88EE190E0A7019601DFD0D6
:10171000215031094109510956954795379527952B
:10172000EC85FD853083EE85FF852083188EEC895E
:10173000FD891083EA89FB89808180618083EA8941
:10174000FB89808188608083EA89FB898081806849
:101750008083EA89FB8980818F7D8083DF91CF91AF
:101760001F91FF90EF90DF90CF9008951F920F92FE
:101770000FB60F9211242F938F939F93EF93FF93A4
:10178000E0913301F09134018081E0913901F091D1
:101790003A0182FD1BC0908180913C018F5F8F7365
:1017A00020913D01821741F0E0913C01F0E0ED5DB8
:1017B000FE4F958F80933C01FF91EF919F918F9108
:1017C0002F910F900FBE0F901F9018958081F4CF2E
:1017D0001F920F920FB60F9211242F933F934F93A6
:1017E0005F936F937F938F939F93AF93BF93EF9389
:1017F000FF9383E291E0CDDEFF91EF91BF91AF9136
:101800009F918F917F916F915F914F913F912F9118
:101810000F900FBE0F901F901895E3E2F1E0138236
:10182000128288EE93E0A0E0B0E084839583A683E3
:10183000B78386E091E09183808385EC90E0958783
:10184000848784EC90E09787868780EC90E0918B8A
:10185000808B81EC90E0938B828B82EC90E0958B77
:10186000848B86EC90E0978B868B118E128E138E74
:10187000148E0895AF92BF92CF92DF92EF92FF92B3
:101880000F931F93CF93DF936C017B018B01040FA8
:10189000151FEB015E01AE18BF08C017D10759F044
:1018A0006991D601ED91FC910190F081E02DC60186
:1018B0000995892B79F7C501DF91CF911F910F9180
:1018C000FF90EF90DF90CF90BF90AF900895A1E28E
:1018D0001A2EAA1BBB1BFD010DC0AA1FBB1FEE1FAA
:1018E000FF1FA217B307E407F50720F0A21BB30BF5
:1018F000E40BF50B661F771F881F991F1A9469F771
:1019000060957095809590959B01AC01BD01CF01CC
:101910000895EE0FFF1F0590F491E02D0994F894BF
:02192000FFCFF7
:10192200C401000000000A0B3A0CBA0AEB0A8C0A46
:04193200A60A980A5F
:00000001FF
